:020000040800F2
:10000000000001208D14000861030008630300084C
:10001000650300086703000869030008000000008A
:100020000000000000000000000000006B0300085A
:100030006D030008000000006F0300087103000852
:10004000D5140008D5140008D5140008D5140008EC
:10005000D5140008D5140008D5140008D5140008DC
:10006000D5140008D5140008D5140008D5140008CC
:10007000D5140008D5140008D5140008D5140008BC
:10008000D5140008D5140008D5140008D5140008AC
:10009000D5140008D5140008D5140008D51400089C
:1000A000D5140008D5140008D5140008D51400088C
:1000B000D5140008D5140008D5140008D51400087C
:1000C000D5140008D5140008D5140008D51400086C
:1000D000D514000879030008D5140008D5140008C9
:1000E000D5140008D5140008D5140008D51400084C
:1000F000D5140008D5140008D5140008D51400083C
:10010000D5140008D5140008D5140008D51400082B
:10011000D5140008D5140008D5140008D51400081B
:10012000D5140008D5140008D5140008D51400080B
:1001300000000000000000000000000000000000BF
:1001400000000000000000000000000000000000AF
:10015000000000000000000000000000000000009F
:10016000000000000000000000000000000000008F
:10017000000000000000000000000000000000007F
:10018000000000000000000000000000000000006F
:10019000000000000000000000000000000000005F
:1001A000000000000000000000000000000000004F
:1001B000000000000000000000000000000000003F
:1001C000000000000000000000000000000000002F
:1001D000000000000000000000000000000000001F
:0401E0005FF8E0F1F3
:1001E40010B5054C237833B9044B13B10448AFF36D
:1001F40000800123237010BD0C00002000000000CB
:100204002015000808B5034B1BB103490348AFF39D
:10021400008008BD00000000100000202015000828
:1002240030B587B000240294039404940594124BCF
:100234009A6942F008029A619A6902F008020092EF
:10024400009A9A6942F004029A619B6903F00403DC
:100254000193019B094D22460121284600F0A4FD8B
:1002640001230293039304940223059302A92846CD
:1002740000F07EFC07B030BD00100240000C0140CD
:1002840072B6FEE708B50A480A4B03604FF4E1333F
:10029400436000238360C36003610C224261836175
:1002A400C36100F05FFF00B908BDFFF7E9FF00BFBD
:1002B400280000200038014000B591B000230993C4
:1002C4000B930C93019302930393049305930121DD
:1002D40006914FF48032079208930A9102230D93FA
:1002E4000E924FF4E0130F9306A800F027F980B99B
:1002F4000F23019302210291002303934FF48062A0
:100304000492059301A800F057FB20B911B05DF8E1
:1003140004FBFFF7B5FFFFF7B3FF000000B587B09C
:1003240000F0BEF8FFF7C8FFFFF77AFFFFF7AAFF58
:1003340001AC084D0FCD0FC42B6823604FF47A73C2
:10034400142201A9044800F03CFF4FF47A7000F035
:10035400CBF8F3E73815000828000020FEE7FEE795
:10036400FEE7FEE7FEE770477047704708B500F008
:10037400A9F808BD08B5024800F0EAFF08BD00BFAF
:100384002800002082B00E4B9A6942F001029A6163
:100394009A6902F001020092009ADA6942F08052EE
:1003A400DA61DB6903F080530193019B054A5368CA
:1003B40023F0E06343F00073536002B0704700BF62
:1003C400001002400000014030B587B000230293C2
:1003D40003930493059302681B4B9A4201D007B020
:1003E40030BD03F558439A6942F480429A619A6990
:1003F40002F480420092009A9A6942F004029A61DF
:100404009B6903F004030193019B4FF4007302936F
:1004140002230393032305930C4D02A9284600F0FD
:10042400A7FB4FF48063029300240394049402A96D
:10043400284600F09DFB22462146252000F080FD41
:10044400252000F0B1FDCAE7003801400008014052
:100454007047000010B504460E4B18784FF47A73B9
:10046400B3FBF0F30C4A1068B0FBF3F000F0AAFD04
:1004740068B90F2C01D901200AE0002221464FF06F
:10048400FF3000F05DFD054B1C60002000E0012002
:1004940010BD00BF04000020000000200800002060
:1004A40008B5074A136843F010031360032000F0F3
:1004B40035FD0020FFF7CEFFFFF764FF002008BDE5
:1004C40000200240034A1168034B1B780B4413605D
:1004D400704700BF6800002004000020014B18682A
:1004E400704700BF6800002038B50446FFF7F6FFE8
:1004F4000546B4F1FF3F02D0044B1B781C44FFF7C0
:10050400EDFF401BA042FAD338BD00BF0400002019
:1005140082B0084B1B68084AA2FB03235B0A00FB5A
:1005240003F3019300BF019B5A1E0192002BF9D1E2
:1005340002B0704700000020D34D6210002800F084
:10054400F18170B582B00446036813F0010F2CD01A
:10055400AA4B5B6803F00C03042B1DD0A74B5B680C
:1005640003F00C03082B12D06368B3F5803F41D02D
:10057400002B55D103F1804303F504331A6822F4A8
:1005840080321A601A6822F480221A6037E09B4B8A
:100594005B6813F4803FE7D0984B1B6813F4003F6B
:1005A40003D06368002B00F0BF81236813F0020FAF
:1005B40075D0924B5B6813F00C0F5FD08F4B5B6868
:1005C40003F00C03082B54D02369002B00F089801E
:1005D4008B4B01221A60FFF781FF0546874B1B688E
:1005E40013F0020F74D1FFF779FF401B0228F5D9ED
:1005F40003209EE1814A136843F4803313606368E7
:1006040043B3FFF76BFF05467C4B1B6813F4003FB5
:10061400CBD1FFF763FF401B6428F5D9032088E1A1
:10062400B3F5A02F09D0754B1A6822F480321A60F2
:100634001A6822F480221A60E1E703F18043A3F5EB
:100644003C331A6842F480221A601A6842F48032F9
:100654001A60D4E7FFF742FF0546684B1B6813F4A2
:10066400003FA2D0FFF73AFF401B6428F5D90320CE
:100674005FE1624B5B6813F4803FA5D15F4B1B685D
:1006840013F0020F03D02369012B40F04F815B4A22
:10069400136823F0F803616943EAC1031360236814
:1006A40013F0080F32D0A369002B45D0554B01221B
:1006B4001A60FFF713FF0546504B5B6A13F0020FF5
:1006C40021D1FFF70BFF401B0228F5D9032030E1AD
:1006D4004A4A136823F0F803616943EAC1031360CB
:1006E400DDE7474B00221A60FFF7F8FE0546434B4F
:1006F4001B6813F0020FD2D0FFF7F0FE401B022854
:10070400F5D9032015E10120FFF702FF236813F058
:10071400040F00F09780394BDB6913F0805F1DD123
:10072400364BDA6942F08052DA61DB6903F08053B8
:100734000193019B012512E0324B00221A60FFF75E
:10074400CDFE05462D4B5B6A13F0020FDED0FFF79A
:10075400C5FE401B0228F5D90320EAE000252A4BF8
:100764001B6813F4807F11D0E368012B22D0002B87
:1007740038D103F1804303F504331A6A22F00102ED
:100784001A621A6A22F004021A6218E01E4A1368F6
:1007940043F480731360FFF7A1FE06461A4B1B68EF
:1007A40013F4807FE0D1FFF799FE801B6428F5D90C
:1007B4000320BEE0114A136A43F001031362E368A5
:1007C40073B3FFF78BFE06460C4B1B6A13F0020F44
:1007D40037D1FFF783FE801B41F288339842F3D967
:1007E4000320A6E0052B11D0044B1A6A22F0010263
:1007F4001A621A6A22F004021A62E0E70010024048
:100804000000424280044242007000404D4B1A6A8C
:1008140042F004021A621A6A42F001021A62CEE736
:10082400FFF75CFE0646474B1B6A13F0020F08D025
:10083400FFF754FE801B41F288339842F3D903201A
:1008440077E0E5B9E369002B72D03E4A526802F0C2
:100854000C02082A56D0022B17D03B4B00221A60F8
:10086400FFF73CFE0446374B1B6813F0007F47D06C
:10087400FFF734FE001B0228F5D9032059E0314A62
:10088400D36923F08053D361DCE72F4B00221A6035
:10089400FFF724FE05462B4B1B6813F0007F06D0A0
:1008A400FFF71CFE401B0228F5D9032041E0236A10
:1008B400B3F5803F1AD023494B6823F47413226A9A
:1008C400606A024313434B601F4B01221A60FFF717
:1008D40005FE04461B4B1B6813F0007F0ED1FFF787
:1008E400FDFD001B0228F5D9032022E0154A5368B8
:1008F40023F40033A1680B435360DCE7002018E0C5
:10090400002016E0012B16D00E4B5B6803F48031F7
:10091400226A914211D103F47013626A93420ED198
:10092400002006E001207047012002E0012000E0E1
:10093400002002B070BD0120FBE70120F9E701208F
:10094400F7E700BF001002406000424286B0164B39
:100954000FCB0DF1180C0CE90F0040F20123ADF898
:100964000430124B5B6803F00C02082A02D01048D2
:1009740006B07047C3F38342624412F8102C13F498
:10098400803F0CD0094B5B68C3F34043634413F8C6
:10099400143C074800FB02F0B0FBF3F0E8E705481D
:1009A40000FB02F0E4E700BF6415000800100240F9
:1009B40000127A0000093D00002800F0A08070B504
:1009C4000D460446524B1B6803F007038B420BD2BF
:1009D4004F4A136823F007030B431360136803F0B3
:1009E40007038B4240F08D80236813F0020F17D069
:1009F40013F0040F04D0474A536843F4E063536090
:100A0400236813F0080F04D0424A536843F4605338
:100A14005360404A536823F0F003A1680B435360CA
:100A2400236813F0010F31D06368012B20D0022B0F
:100A340025D0384A126812F0020F64D035494A684A
:100A440022F0030213434B60FFF748FD0646314B87
:100A54005B6803F00C036268B3EB820F16D0FFF7F8
:100A64003DFD801B41F288339842F0D9032045E0D4
:100A7400284A126812F4003FE0D101203EE0254AE2
:100A8400126812F0007FD9D1012037E0204B1B6897
:100A940003F00703AB420AD91D4A136823F0070386
:100AA4002B431360136803F00703AB422DD1236873
:100AB40013F0040F06D0174A536823F4E063E16887
:100AC4000B435360236813F0080F07D0114A53688F
:100AD40023F46053216943EAC1035360FFF736FFEF
:100AE4000C4B5B68C3F303130B4AD35CD8400B4B2A
:100AF40018600B4B1868FFF7ADFC002070BD012097
:100B040070470120FAE70120F8E70120F6E700BF6B
:100B140000200240001002404C1500080000002094
:100B240008000020014B1868704700BF0000002037
:100B340008B5FFF7F7FF044B5B68C3F30223034ACE
:100B4400D35CD84008BD00BF001002405C1500080B
:100B540008B5FFF7E7FF044B5B68C3F3C223034AFE
:100B6400D35CD84008BD00BF001002405C150008EB
:100B7400F0B482B000252C46ABE0854FBB4210D0C8
:100B840007D9844FBB420CD007F58037BB4208D04D
:100B940013E0A7F58017BB4203D007F57027BB42CB
:100BA40007D18B68002B60D0012B59D042610825F6
:100BB40003E0A7F58017BB42F3D0FF2E57D8844635
:100BC400FF2E57D8A200DCF800300F27974023EA05
:100BD400070305FA02F21343CCF800304B6813F014
:100BE400805F75D06C4B9A6942F001029A619B69EF
:100BF40003F001030193019BA208971C674B53F870
:100C040027C004F003039F000F23BB402CEA030C0E
:100C1400634B984234D003F58063984200F094808B
:100C240003F58063984200F0918003F58063984255
:100C340000F08E8003F58063984200F08B8003F50A
:100C4400806398421AD006231BE0CD68B5E7CD68CF
:100C54000435B2E7CD680835AFE7CD680C35ACE7AD
:100C640002610825A9E70025A7E70425A5E700F107
:100C7400040CA5E7A4F108029200A4E7052300E010
:100C84000023BB4043EA0C030232444F47F82230AE
:100C94004B6813F4803F5FD0424A136833431360B8
:100CA4004B6813F4003F5DD03E4A536833435360AE
:100CB4004B6813F4801F5BD03A4A936833439360C4
:100CC4004B6813F4001F59D0364AD3681E43D660CC
:100CD40001340B6833FA04F256D00122A24003EA2D
:100CE400020632EA0303F3D14B68122B3FF645AFF9
:100CF400122B3FF662AF01A757F823F0A70B0008A9
:100D04004F0C0008590C00086B0C0008BF0B0008BE
:100D1400BF0B0008BF0B0008BF0B0008BF0B000887
:100D2400BF0B0008BF0B0008BF0B0008BF0B000877
:100D3400BF0B0008BF0B0008BF0B0008BF0B000867
:100D4400530C00085F0C000801239AE7022398E77C
:100D5400032396E7042394E7124A136823EA06035D
:100D640013609DE70F4A536823EA060353609FE725
:100D74000C4A936823EA06039360A1E7094AD368FF
:100D840023EA0606D660A3E702B0F0BC704700BFB2
:100D94000000221000003110001002400000014049
:100DA40000080140000401400AB1016170470904D0
:100DB4000161704708B590F82130022B03D0042359
:100DC4008363012008BD0268136823F00E031360D7
:100DD4000268136823F00103136003684B4A9342CB
:100DE4004ED9783A934224D01432934230D01432FC
:100DF40093422FD0143293422FD0143293422FD0E7
:100E0400143293422FD0143293422FD002F56272DF
:100E140093422ED0143293422DD0143293422CD0CC
:100E24001432934202D04FF4803203E04FF48052E4
:100E340000E00122364B5A60012380F82130002360
:100E440080F82030436B002B5ED098470020B9E730
:100E54001022EFE74FF48072ECE74FF48052E9E799
:100E64004FF48032E6E74FF48012E3E74FF08072EC
:100E7400E0E70122DEE71022DCE74FF48072D9E7D5
:100E8400244A934224D01432934225D014329342FC
:100E940024D01432934224D01432934224D01432F6
:100EA400934224D01432934224D002F562729342C6
:100EB40023D01432934222D01432934221D01432DC
:100EC400934202D04FF4803203E04FF4805200E0AA
:100ED4000122114B5A60AFE71022FAE74FF48072F7
:100EE400F7E74FF48052F4E74FF48032F1E74FF420
:100EF4008012EEE74FF08072EBE70122E9E710225F
:100F0400E7E74FF48072E4E700205BE780000240EB
:100F1400000402400800024000000240074AD3686F
:100F240023F4E0631B041B0C000200F4E0600343A1
:100F340043F0BF6343F40033D360704700ED00E037
:100F440030B4174BDB68C3F30223C3F10704042C4A
:100F540028BF04241D1D062D18D9033B4FF0FF356F
:100F640005FA04F421EA0401994005FA03F322EA9C
:100F74000303194300280BDB0901C9B200F16040E7
:100F840000F5614080F8001330BC70470023E5E7AA
:100F940000F00F000901C9B2024B1954F4E700BF75
:100FA40000ED00E014ED00E0002807DB00F01F0274
:100FB400400901239340024A42F82030704700BFA1
:100FC40000E100E00138B0F1807F0AD2064B58609E
:100FD400064AF02182F823100020986007221A6044
:100FE40070470120704700BF10E000E000ED00E012
:100FF4000268D36823F49073D3600268536923F0C2
:1010040001035361202380F83A30704790F8393057
:10101400DBB2212B01D0022070478368B3F5805FD7
:1010240017D0036A5A1C02621A7803685A60C38C88
:101034009BB2013B9BB2C3844BB90268D36823F0D3
:101044008003D3600268D36843F04003D360002078
:1010540070470369002BE4D1036A1B880268C3F359
:1010640008035360036A02330362E0E710B50446E1
:101074000268136923F44053C1680B431361836806
:101084000269134342691A430168CB6823F4B053DD
:1010940023F00C031343CB600268536923F44073B9
:1010A40081690B4353610268124B9A421FD0FFF7C8
:1010B4003FFD00EB800303EB830362689200B3FB04
:1010C400F2F20D48A0FB02314909642303FB11230A
:1010D4001B013233A0FB03235B0903F0F00202EB94
:1010E400011203F00F03216813448B6010BDFFF756
:1010F4002FFDDEE7003801401F85EB512DE9F84351
:1011040005460F4616469946DDF820802C6824686B
:1011140037EA04030CBF01240024B4421FD1B8F100
:10112400FF3FF3D0B8F1000F05D0FFF7D7F9A0EBDC
:1011340009004045EAD92A68D36823F4D073D36000
:101144002A68536923F001035361202385F8393059
:1011540085F83A30002385F83830032000E0002079
:10116400BDE8F88358B310B5044690F839300BB392
:10117400242384F839302268D36823F40053D360DD
:101184002046FFF773FF2268136923F49043136129
:101194002268536923F02A0353612268D36843F415
:1011A4000053D3600020E063202384F8393084F8AE
:1011B4003A3010BD80F83830FFF706F9D8E701203F
:1011C40070472DE9F04182B01E4690F83930DBB209
:1011D400202B54D104460D469046002953D0002AB2
:1011E40053D090F83830012B51D0012380F8383097
:1011F4000023C363212380F83930FFF76FF90746D2
:10120400A4F82480A4F82680A368B3F5805F05D0F1
:101214004FF00008002384F8383012E0236913B13A
:101224004FF00008F6E7A8460025F3E738F8023B3C
:101234002268C3F308035360E28C92B2013A92B27B
:10124400E284E38C9BB273B100963B46002280217A
:101254002046FFF753FFE0B9002DE7D015F8012B26
:1012640023685A60E8E700963B4600224021204666
:10127400FFF744FF78B9202384F8393000E00220D6
:1012840002B0BDE8F0810120FAE70120F8E702206E
:10129400F6E70320F4E70320F2E7704708B5016896
:1012A400CA6822F04002CA60202280F83920FFF781
:1012B400F4FF002008BD704708B590F83A30DBB25F
:1012C400222B41D18368B3F5805F14D0826AB3F5D1
:1012D400805F02D0E3B90369D3B903685B68137014
:1012E400836A01338362C38D9BB2013B9BB2C38586
:1012F400A3B1002008BD0269002AE7D1826A03680D
:101304005B68C3F308031380836A02338362EAE7EA
:1013140003685B6803F07F031370E1E70268D36836
:1013240023F02003D3600268D36823F48073D3606E
:101334000268536923F001035361202380F83A3093
:10134400FFF7B9FF0020D5E70220D3E7704700007C
:1013540010B5044602681368D168526913F00F008F
:1013640005D113F0200F02D011F0200F13D128B1B2
:1013740012F0010213D111F4907F10D113F0800FF9
:1013840002D011F0800F6CD113F0400F02D011F095
:10139400400F6AD110BD2046FFF78EFFFAE713F025
:1013A400010F06D011F4807F03D0E06B40F0010000
:1013B400E06313F0040F04D01AB1E06B40F00200B4
:1013C400E06313F0020F04D01AB1E06B40F00400A4
:1013D400E06313F0080F07D011F0200F00D11AB109
:1013E400E26B42F00802E263E26B002AD2D013F00F
:1013F400200F02D011F0200F21D123685B6903F084
:101404004003E26B12F0080F00D123B32046FFF72C
:10141400EFFD23685A6912F0400F18D05A6922F080
:1014240040025A61636B73B1124A5A63606BFFF7EF
:10143400C1FC0028AED0606B436B9847AAE72046F6
:10144400FFF73AFFD9E72046FFF780FFA2E72046DF
:10145400FFF77CFF9EE72046FFF778FF0023E36356
:1014640098E72046FFF7D2FD94E72046FFF716FFE2
:1014740090E700BF7D14000808B5406A0023C385C7
:10148400C384FFF763FF08BD002103E00B4B5B58E7
:10149400435004310A480B4B42189A42F6D30A4A85
:1014A40002E0002342F8043B084B9A42F9D3FEF7CA
:1014B400CFFF00F00FF8FEF731FF704780150008EA
:1014C400000000200C0000200C0000206C00002014
:1014D400FEE7000070B500260C4D0D4C641BA410F3
:1014E400A64209D100F01AF800260A4D0A4C641BE2
:1014F400A410A64205D170BD55F8043B98470136A7
:10150400EEE755F8043B98470136F2E778150008F2
:1015140078150008781500087C150008F8B500BF98
:10152400F8BC08BC9E467047F8B500BFF8BC08BCC0
:041534009E46704718
:101538003D3D3D3D3D3D3132333435363D3D3D3D0C
:101548003D3D0A0000000000000000000102030405
:10155800060708090000000001020304020304054D
:10156800060708090A0B0C0D0E0F101000000000EA
:04157800090200085C
:04157C00E50100087D
:0C1580000024F400010000001000000036
:040000050800148D4E
:00000001FF
