:020000040800F2
:10000000000001204D0A00088B0200088D02000844
:100010008F0200089102000893020008000000000F
:100020000000000000000000000000009502000831
:100030009702000800000000990200089B020008D7
:10004000950A0008950A0008950A0008950A000814
:10005000950A0008950A0008950A0008950A000804
:10006000950A0008950A0008950A0008950A0008F4
:10007000950A0008950A0008950A0008950A0008E4
:10008000950A0008950A0008950A0008950A0008D4
:10009000950A0008950A0008950A0008950A0008C4
:1000A000950A0008950A0008950A0008950A0008B4
:1000B000950A0008950A0008950A0008950A0008A4
:1000C000950A0008950A0008950A0008950A000894
:1000D000950A0008950A0008950A0008950A000884
:1000E000950A0008950A0008950A0008950A000874
:1000F000950A0008950A0008950A0008950A000864
:10010000950A0008950A0008950A0008950A000853
:10011000950A0008950A0008950A0008950A000843
:10012000950A0008950A0008950A0008950A000833
:1001300000000000000000000000000000000000BF
:1001400000000000000000000000000000000000AF
:10015000000000000000000000000000000000009F
:10016000000000000000000000000000000000008F
:10017000000000000000000000000000000000007F
:10018000000000000000000000000000000000006F
:10019000000000000000000000000000000000005F
:1001A000000000000000000000000000000000004F
:1001B000000000000000000000000000000000003F
:1001C000000000000000000000000000000000002F
:1001D000000000000000000000000000000000001F
:0401E0005FF8E0F1F3
:1001E40010B5054C237833B9044B13B10448AFF36D
:1001F40000800123237010BD0C00002000000000CB
:10020400F00A000808B5034B1BB103490348AFF3D8
:10021400008008BD0000000010000020F00A000863
:1002240072B6FEE700B591B02422002107A800F0C1
:1002340055FC002301930293039304930593022333
:10024400069301230A9310230B9306A800F0ACF83D
:1002540078B90F2301930021029103914FF4806335
:100264000493059101A800F0DDFA20B911B05DF8FE
:1002740004FBFFF7D5FFFFF7D3FF08B500F05AF8EA
:10028400FFF7D0FFFEE7FEE7FEE7FEE7FEE7FEE747
:1002940070477047704708B500F05EF808BD00006D
:1002A40082B00E4B9A6942F001029A619A6902F097
:1002B40001020092009ADA6942F08052DA61DB6945
:1002C40003F080530193019B054A536823F0E063D4
:1002D40043F08063536002B0704700BF00100240D7
:1002E400000001407047000010B504460E4B18781A
:1002F4004FF47A73B3FBF0F30C4A1068B0FBF3F0DD
:1003040000F08CFB68B90F2C01D901200AE000220F
:1003140021464FF0FF3000F04DFB054B1C600020E0
:1003240000E0012010BD00BF0400002000000020F8
:100334000800002008B5074A136843F0100313604F
:10034400032000F025FB0020FFF7CEFFFFF7A8FFF6
:10035400002008BD00200240034A1168034B1B78AB
:100364000B441360704700BF2800002004000020E5
:10037400014B1868704700BF2800002082B0084B6A
:100384001B68084AA2FB03235B0A00FB03F30193E7
:1003940000BF019B5A1E0192002BF9D102B0704795
:1003A40000000020D34D6210002800F0F18170B5E8
:1003B40082B00446036813F0010F2CD0AA4B5B688B
:1003C40003F00C03042B1DD0A74B5B6803F00C0354
:1003D400082B12D06368B3F5803F41D0002B55D170
:1003E40003F1804303F504331A6822F480321A605F
:1003F4001A6822F480221A6037E09B4B5B6813F47E
:10040400803FE7D0984B1B6813F4003F03D0636828
:10041400002B00F0BF81236813F0020F75D0924BBC
:100424005B6813F00C0F5FD08F4B5B6803F00C0319
:10043400082B54D02369002B00F089808B4B0122B8
:100444001A60FFF795FF0546874B1B6813F0020FF0
:1004540074D1FFF78DFF401B0228F5D903209EE1DC
:10046400814A136843F480331360636843B3FFF72E
:100474007FFF05467C4B1B6813F4003FCBD1FFF78D
:1004840077FF401B6428F5D9032088E1B3F5A02F3A
:1004940009D0754B1A6822F480321A601A6822F463
:1004A40080221A60E1E703F18043A3F53C331A6824
:1004B40042F480221A601A6842F480321A60D4E747
:1004C400FFF756FF0546684B1B6813F4003FA2D0A4
:1004D400FFF74EFF401B6428F5D903205FE1624B10
:1004E4005B6813F4803FA5D15F4B1B6813F0020FC8
:1004F40003D02369012B40F04F815B4A136823F03A
:10050400F803616943EAC1031360236813F0080F19
:1005140032D0A369002B45D0554B01221A60FFF756
:1005240027FF0546504B5B6A13F0020F21D1FFF7FA
:100534001FFF401B0228F5D9032030E14A4A136803
:1005440023F0F803616943EAC1031360DDE7474B15
:1005540000221A60FFF70CFF0546434B1B6813F09B
:10056400020FD2D0FFF704FF401B0228F5D9032065
:1005740015E10120FFF702FF236813F0040F00F0D8
:100584009780394BDB6913F0805F1DD1364BDA69F4
:1005940042F08052DA61DB6903F080530193019BDE
:1005A400012512E0324B00221A60FFF7E1FE0546F6
:1005B4002D4B5B6A13F0020FDED0FFF7D9FE401B10
:1005C4000228F5D90320EAE000252A4B1B6813F41E
:1005D400807F11D0E368012B22D0002B38D103F1A6
:1005E400804303F504331A6A22F001021A621A6A7C
:1005F40022F004021A6218E01E4A136843F480735E
:100604001360FFF7B5FE06461A4B1B6813F4807F90
:10061400E0D1FFF7ADFE801B6428F5D90320BEE0CE
:10062400114A136A43F001031362E36873B3FFF7DB
:100634009FFE06460C4B1B6A13F0020F37D1FFF7DF
:1006440097FE801B41F288339842F3D90320A6E039
:10065400052B11D0044B1A6A22F001021A621A6A9D
:1006640022F004021A62E0E7001002400000424255
:1006740080044242007000404D4B1A6A42F004026A
:100684001A621A6A42F001021A62CEE7FFF770FE9C
:100694000646474B1B6A13F0020F08D0FFF768FEAB
:1006A400801B41F288339842F3D9032077E0E5B9FF
:1006B400E369002B72D03E4A526802F00C02082A09
:1006C40056D0022B17D03B4B00221A60FFF750FE86
:1006D4000446374B1B6813F0007F47D0FFF748FEF2
:1006E400001B0228F5D9032059E0314AD36923F0CD
:1006F4008053D361DCE72F4B00221A60FFF738FEEA
:1007040005462B4B1B6813F0007F06D0FFF730FE25
:10071400401B0228F5D9032041E0236AB3F5803F4A
:100724001AD023494B6823F47413226A606A024383
:1007340013434B601F4B01221A60FFF719FE044656
:100744001B4B1B6813F0007F0ED1FFF711FE001B3B
:100754000228F5D9032022E0154A536823F4003314
:10076400A1680B435360DCE7002018E0002016E08A
:10077400012B16D00E4B5B6803F48031226A914240
:1007840011D103F47013626A93420ED1002006E083
:1007940001207047012002E0012000E0002002B0A7
:1007A40070BD0120FBE70120F9E70120F7E700BF56
:1007B400001002406000424286B0164B0FCB0DF190
:1007C400180C0CE90F0040F20123ADF80430124B71
:1007D4005B6803F00C02082A02D0104806B0704788
:1007E400C3F38342624412F8102C13F4803F0CD0FC
:1007F400094B5B68C3F34043634413F8143C074854
:1008040000FB02F0B0FBF3F0E8E7054800FB02F060
:10081400E4E700BF180B00080010024000127A0041
:1008240000093D00002800F0A08070B50D46044684
:10083400524B1B6803F007038B420BD24F4A1368D9
:1008440023F007030B431360136803F007038B4281
:1008540040F08D80236813F0020F17D013F0040FBB
:1008640004D0474A536843F4E0635360236813F0A9
:10087400080F04D0424A536843F460535360404A1B
:10088400536823F0F003A1680B435360236813F00B
:10089400010F31D06368012B20D0022B25D0384AB8
:1008A400126812F0020F64D035494A6822F003023C
:1008B40013434B60FFF75CFD0646314B5B6803F066
:1008C4000C036268B3EB820F16D0FFF751FD801B57
:1008D40041F288339842F0D9032045E0284A12684F
:1008E40012F4003FE0D101203EE0254A126812F0E4
:1008F400007FD9D1012037E0204B1B6803F00703A8
:10090400AB420AD91D4A136823F007032B43136033
:10091400136803F00703AB422DD1236813F0040FCF
:1009240006D0174A536823F4E063E1680B4353602D
:10093400236813F0080F07D0114A536823F4605357
:10094400216943EAC1035360FFF736FF0C4B5B6830
:10095400C3F303130B4AD35CD8400B4B18600B4B07
:100964001868FFF7C1FC002070BD0120704701200A
:10097400FAE70120F8E70120F6E700BF0020024073
:1009840000100240080B00080000002008000020AE
:10099400074AD36823F4E0631B041B0C000200F431
:1009A400E060034343F0BF6343F40033D360704714
:1009B40000ED00E030B4174BDB68C3F30223C3F14E
:1009C4000704042C28BF04241D1D062D18D9033B3D
:1009D4004FF0FF3505FA04F421EA0401994005FAC1
:1009E40003F322EA0303194300280BDB0901C9B20C
:1009F40000F1604000F5614080F8001330BC70479E
:100A04000023E5E700F00F000901C9B2024B1954B5
:100A1400F4E700BF00ED00E014ED00E00138B0F1B0
:100A2400807F0AD2064B5860064AF02182F82310D0
:100A34000020986007221A6070470120704700BFA9
:100A440010E000E000ED00E0002103E00B4B5B58F8
:100A5400435004310A480B4B42189A42F6D30A4ACF
:100A640002E0002342F8043B084B9A42F9D3FFF713
:100A740039FC00F00FF8FFF700FC7047340B000856
:100A8400000000200C0000200C0000202C0000209E
:100A9400FEE7000070B500260C4D0D4C641BA4103D
:100AA400A64209D100F022F800260A4D0A4C641B24
:100AB400A410A64205D170BD55F8043B98470136F1
:100AC400EEE755F8043B98470136F2E72C0B000893
:100AD4002C0B00082C0B0008300B000803460244C2
:100AE400934200D1704703F8011BF9E7F8B500BF42
:100AF400F8BC08BC9E467047F8B500BFF8BC08BCFB
:040B04009E46704752
:100B080000000000000000000102030406070809B5
:100B180002030405060708090A0B0C0D0E0F101036
:040B280000000000C9
:040B2C0009020008B2
:040B3000E5010008D3
:0C0B34000024F40001000000100000008C
:0400000508000A4D98
:00000001FF
